{
  "_format": "hh-sol-artifact-1",
  "contractName": "LockAndVote",
  "sourceName": "contracts/LockAndVote.sol",
  "abi": [
    {
      "inputs": [
        {
          "internalType": "address",
          "name": "_fctrToken",
          "type": "address"
        },
        {
          "internalType": "address",
          "name": "_xfctrToken",
          "type": "address"
        },
        {
          "internalType": "address",
          "name": "initialOwner",
          "type": "address"
        }
      ],
      "stateMutability": "nonpayable",
      "type": "constructor"
    },
    {
      "inputs": [
        {
          "internalType": "address",
          "name": "owner",
          "type": "address"
        }
      ],
      "name": "OwnableInvalidOwner",
      "type": "error"
    },
    {
      "inputs": [
        {
          "internalType": "address",
          "name": "account",
          "type": "address"
        }
      ],
      "name": "OwnableUnauthorizedAccount",
      "type": "error"
    },
    {
      "anonymous": false,
      "inputs": [
        {
          "indexed": true,
          "internalType": "address",
          "name": "previousOwner",
          "type": "address"
        },
        {
          "indexed": true,
          "internalType": "address",
          "name": "newOwner",
          "type": "address"
        }
      ],
      "name": "OwnershipTransferred",
      "type": "event"
    },
    {
      "inputs": [],
      "name": "fctrToken",
      "outputs": [
        {
          "internalType": "contract IERC20",
          "name": "",
          "type": "address"
        }
      ],
      "stateMutability": "view",
      "type": "function"
    },
    {
      "inputs": [],
      "name": "lockContract",
      "outputs": [
        {
          "internalType": "contract ILockContract",
          "name": "",
          "type": "address"
        }
      ],
      "stateMutability": "view",
      "type": "function"
    },
    {
      "inputs": [],
      "name": "lockContractAddress",
      "outputs": [
        {
          "internalType": "address",
          "name": "",
          "type": "address"
        }
      ],
      "stateMutability": "view",
      "type": "function"
    },
    {
      "inputs": [
        {
          "internalType": "uint256",
          "name": "amount",
          "type": "uint256"
        }
      ],
      "name": "lockTokens",
      "outputs": [],
      "stateMutability": "nonpayable",
      "type": "function"
    },
    {
      "inputs": [],
      "name": "owner",
      "outputs": [
        {
          "internalType": "address",
          "name": "",
          "type": "address"
        }
      ],
      "stateMutability": "view",
      "type": "function"
    },
    {
      "inputs": [],
      "name": "renounceOwnership",
      "outputs": [],
      "stateMutability": "nonpayable",
      "type": "function"
    },
    {
      "inputs": [
        {
          "internalType": "address",
          "name": "newOwner",
          "type": "address"
        }
      ],
      "name": "transferOwnership",
      "outputs": [],
      "stateMutability": "nonpayable",
      "type": "function"
    },
    {
      "inputs": [
        {
          "internalType": "uint256",
          "name": "proposalId",
          "type": "uint256"
        },
        {
          "internalType": "bool",
          "name": "support",
          "type": "bool"
        }
      ],
      "name": "vote",
      "outputs": [],
      "stateMutability": "nonpayable",
      "type": "function"
    },
    {
      "inputs": [],
      "name": "voteContract",
      "outputs": [
        {
          "internalType": "contract IVoteContract",
          "name": "",
          "type": "address"
        }
      ],
      "stateMutability": "view",
      "type": "function"
    },
    {
      "inputs": [],
      "name": "voteContractAddress",
      "outputs": [
        {
          "internalType": "address",
          "name": "",
          "type": "address"
        }
      ],
      "stateMutability": "view",
      "type": "function"
    },
    {
      "inputs": [],
      "name": "xfctrToken",
      "outputs": [
        {
          "internalType": "contract xFCTR",
          "name": "",
          "type": "address"
        }
      ],
      "stateMutability": "view",
      "type": "function"
    }
  ],
  "bytecode": "0x60806040527343d75a4248e8fdbd63778ea449349173697a7050600560006101000a81548173ffffffffffffffffffffffffffffffffffffffff021916908373ffffffffffffffffffffffffffffffffffffffff1602179055507366a85979b954077efd5db830063a56fb86850398600660006101000a81548173ffffffffffffffffffffffffffffffffffffffff021916908373ffffffffffffffffffffffffffffffffffffffff160217905550348015620000bb57600080fd5b50604051620012af380380620012af8339818101604052810190620000e1919062000565565b80600073ffffffffffffffffffffffffffffffffffffffff168173ffffffffffffffffffffffffffffffffffffffff1603620001575760006040517f1e4fbdf70000000000000000000000000000000000000000000000000000000081526004016200014e9190620005d2565b60405180910390fd5b6200016881620002cb60201b60201c565b5082600160006101000a81548173ffffffffffffffffffffffffffffffffffffffff021916908373ffffffffffffffffffffffffffffffffffffffff16021790555081600260006101000a81548173ffffffffffffffffffffffffffffffffffffffff021916908373ffffffffffffffffffffffffffffffffffffffff160217905550600560009054906101000a900473ffffffffffffffffffffffffffffffffffffffff16600360006101000a81548173ffffffffffffffffffffffffffffffffffffffff021916908373ffffffffffffffffffffffffffffffffffffffff160217905550600660009054906101000a900473ffffffffffffffffffffffffffffffffffffffff16600460006101000a81548173ffffffffffffffffffffffffffffffffffffffff021916908373ffffffffffffffffffffffffffffffffffffffff160217905550620002c2816200038f60201b60201c565b505050620005ef565b60008060009054906101000a900473ffffffffffffffffffffffffffffffffffffffff169050816000806101000a81548173ffffffffffffffffffffffffffffffffffffffff021916908373ffffffffffffffffffffffffffffffffffffffff1602179055508173ffffffffffffffffffffffffffffffffffffffff168173ffffffffffffffffffffffffffffffffffffffff167f8be0079c531659141344cd1fd0a4f28419497f9722a3daafe3b4186f6b6457e060405160405180910390a35050565b6200039f6200042860201b60201c565b600073ffffffffffffffffffffffffffffffffffffffff168173ffffffffffffffffffffffffffffffffffffffff1603620004145760006040517f1e4fbdf70000000000000000000000000000000000000000000000000000000081526004016200040b9190620005d2565b60405180910390fd5b6200042581620002cb60201b60201c565b50565b62000438620004ca60201b60201c565b73ffffffffffffffffffffffffffffffffffffffff166200045e620004d260201b60201c565b73ffffffffffffffffffffffffffffffffffffffff1614620004c8576200048a620004ca60201b60201c565b6040517f118cdaa7000000000000000000000000000000000000000000000000000000008152600401620004bf9190620005d2565b60405180910390fd5b565b600033905090565b60008060009054906101000a900473ffffffffffffffffffffffffffffffffffffffff16905090565b600080fd5b600073ffffffffffffffffffffffffffffffffffffffff82169050919050565b60006200052d8262000500565b9050919050565b6200053f8162000520565b81146200054b57600080fd5b50565b6000815190506200055f8162000534565b92915050565b600080600060608486031215620005815762000580620004fb565b5b600062000591868287016200054e565b9350506020620005a4868287016200054e565b9250506040620005b7868287016200054e565b9150509250925092565b620005cc8162000520565b82525050565b6000602082019050620005e96000830184620005c1565b92915050565b610cb080620005ff6000396000f3fe608060405234801561001057600080fd5b50600436106100a95760003560e01c80638da5cb5b116100715780638da5cb5b1461012e578063906fbec91461014c578063c9d27afe1461016a578063ee183c4a14610186578063f2fde38b146101a4578063f489d120146101c0576100a9565b806363ae30c6146100ae5780636e27d889146100cc5780636e816c8d146100e8578063715018a614610106578063753868e314610110575b600080fd5b6100b66101de565b6040516100c391906108b5565b60405180910390f35b6100e660048036038101906100e1919061090b565b610204565b005b6100f06104c7565b6040516100fd9190610959565b60405180910390f35b61010e6104ed565b005b610118610501565b6040516101259190610995565b60405180910390f35b610136610527565b6040516101439190610959565b60405180910390f35b610154610550565b6040516101619190610959565b60405180910390f35b610184600480360381019061017f91906109e8565b610576565b005b61018e610611565b60405161019b9190610a49565b60405180910390f35b6101be60048036038101906101b99190610a90565b610637565b005b6101c86106bd565b6040516101d59190610ade565b60405180910390f35b600160009054906101000a900473ffffffffffffffffffffffffffffffffffffffff1681565b600160009054906101000a900473ffffffffffffffffffffffffffffffffffffffff1673ffffffffffffffffffffffffffffffffffffffff166323b872dd3330846040518463ffffffff1660e01b815260040161026393929190610b08565b6020604051808303816000875af1158015610282573d6000803e3d6000fd5b505050506040513d601f19601f820116820180604052508101906102a69190610b54565b6102e5576040517f08c379a00000000000000000000000000000000000000000000000000000000081526004016102dc90610bde565b60405180910390fd5b600160009054906101000a900473ffffffffffffffffffffffffffffffffffffffff1673ffffffffffffffffffffffffffffffffffffffff1663095ea7b3600560009054906101000a900473ffffffffffffffffffffffffffffffffffffffff16836040518363ffffffff1660e01b8152600401610364929190610bfe565b6020604051808303816000875af1158015610383573d6000803e3d6000fd5b505050506040513d601f19601f820116820180604052508101906103a79190610b54565b50600360009054906101000a900473ffffffffffffffffffffffffffffffffffffffff1673ffffffffffffffffffffffffffffffffffffffff16632e9d1e9d826040518263ffffffff1660e01b81526004016104039190610c27565b600060405180830381600087803b15801561041d57600080fd5b505af1158015610431573d6000803e3d6000fd5b50505050600260009054906101000a900473ffffffffffffffffffffffffffffffffffffffff1673ffffffffffffffffffffffffffffffffffffffff166340c10f1933836040518363ffffffff1660e01b8152600401610492929190610bfe565b600060405180830381600087803b1580156104ac57600080fd5b505af11580156104c0573d6000803e3d6000fd5b5050505050565b600560009054906101000a900473ffffffffffffffffffffffffffffffffffffffff1681565b6104f56106e3565b6104ff600061076a565b565b600360009054906101000a900473ffffffffffffffffffffffffffffffffffffffff1681565b60008060009054906101000a900473ffffffffffffffffffffffffffffffffffffffff16905090565b600660009054906101000a900473ffffffffffffffffffffffffffffffffffffffff1681565b61057e6106e3565b600460009054906101000a900473ffffffffffffffffffffffffffffffffffffffff1673ffffffffffffffffffffffffffffffffffffffff1663c9d27afe83836040518363ffffffff1660e01b81526004016105db929190610c51565b600060405180830381600087803b1580156105f557600080fd5b505af1158015610609573d6000803e3d6000fd5b505050505050565b600460009054906101000a900473ffffffffffffffffffffffffffffffffffffffff1681565b61063f6106e3565b600073ffffffffffffffffffffffffffffffffffffffff168173ffffffffffffffffffffffffffffffffffffffff16036106b15760006040517f1e4fbdf70000000000000000000000000000000000000000000000000000000081526004016106a89190610959565b60405180910390fd5b6106ba8161076a565b50565b600260009054906101000a900473ffffffffffffffffffffffffffffffffffffffff1681565b6106eb61082e565b73ffffffffffffffffffffffffffffffffffffffff16610709610527565b73ffffffffffffffffffffffffffffffffffffffff16146107685761072c61082e565b6040517f118cdaa700000000000000000000000000000000000000000000000000000000815260040161075f9190610959565b60405180910390fd5b565b60008060009054906101000a900473ffffffffffffffffffffffffffffffffffffffff169050816000806101000a81548173ffffffffffffffffffffffffffffffffffffffff021916908373ffffffffffffffffffffffffffffffffffffffff1602179055508173ffffffffffffffffffffffffffffffffffffffff168173ffffffffffffffffffffffffffffffffffffffff167f8be0079c531659141344cd1fd0a4f28419497f9722a3daafe3b4186f6b6457e060405160405180910390a35050565b600033905090565b600073ffffffffffffffffffffffffffffffffffffffff82169050919050565b6000819050919050565b600061087b61087661087184610836565b610856565b610836565b9050919050565b600061088d82610860565b9050919050565b600061089f82610882565b9050919050565b6108af81610894565b82525050565b60006020820190506108ca60008301846108a6565b92915050565b600080fd5b6000819050919050565b6108e8816108d5565b81146108f357600080fd5b50565b600081359050610905816108df565b92915050565b600060208284031215610921576109206108d0565b5b600061092f848285016108f6565b91505092915050565b600061094382610836565b9050919050565b61095381610938565b82525050565b600060208201905061096e600083018461094a565b92915050565b600061097f82610882565b9050919050565b61098f81610974565b82525050565b60006020820190506109aa6000830184610986565b92915050565b60008115159050919050565b6109c5816109b0565b81146109d057600080fd5b50565b6000813590506109e2816109bc565b92915050565b600080604083850312156109ff576109fe6108d0565b5b6000610a0d858286016108f6565b9250506020610a1e858286016109d3565b9150509250929050565b6000610a3382610882565b9050919050565b610a4381610a28565b82525050565b6000602082019050610a5e6000830184610a3a565b92915050565b610a6d81610938565b8114610a7857600080fd5b50565b600081359050610a8a81610a64565b92915050565b600060208284031215610aa657610aa56108d0565b5b6000610ab484828501610a7b565b91505092915050565b6000610ac882610882565b9050919050565b610ad881610abd565b82525050565b6000602082019050610af36000830184610acf565b92915050565b610b02816108d5565b82525050565b6000606082019050610b1d600083018661094a565b610b2a602083018561094a565b610b376040830184610af9565b949350505050565b600081519050610b4e816109bc565b92915050565b600060208284031215610b6a57610b696108d0565b5b6000610b7884828501610b3f565b91505092915050565b600082825260208201905092915050565b7f5472616e73666572206661696c65640000000000000000000000000000000000600082015250565b6000610bc8600f83610b81565b9150610bd382610b92565b602082019050919050565b60006020820190508181036000830152610bf781610bbb565b9050919050565b6000604082019050610c13600083018561094a565b610c206020830184610af9565b9392505050565b6000602082019050610c3c6000830184610af9565b92915050565b610c4b816109b0565b82525050565b6000604082019050610c666000830185610af9565b610c736020830184610c42565b939250505056fea264697066735822122035d548c754ecf603b5ddc82dd2ab9cfefb1484870b9bea35e6fe07b5da4c83b164736f6c63430008180033",
  "linkReferences": {},
  "deployedLinkReferences": {}
}